{"abi":[{"type":"constructor","inputs":[],"stateMutability":"nonpayable"},{"type":"function","name":"add","inputs":[{"name":"_data","type":"uint256","internalType":"uint256"}],"outputs":[],"stateMutability":"nonpayable"},{"type":"function","name":"get","inputs":[{"name":"index","type":"uint256","internalType":"uint256"}],"outputs":[{"name":"","type":"uint256","internalType":"uint256"}],"stateMutability":"view"},{"type":"function","name":"owner","inputs":[],"outputs":[{"name":"","type":"address","internalType":"address"}],"stateMutability":"view"}],"bytecode":{"object":"0x6080604052348015600e575f5ffd5b50335f5f6101000a81548173ffffffffffffffffffffffffffffffffffffffff021916908373ffffffffffffffffffffffffffffffffffffffff16021790555061043f8061005b5f395ff3fe608060405234801561000f575f5ffd5b506004361061003f575f3560e01c80631003e2d2146100435780638da5cb5b1461005f5780639507d39a1461007d575b5f5ffd5b61005d6004803603810190610058919061022b565b6100ad565b005b610067610164565b6040516100749190610295565b60405180910390f35b6100976004803603810190610092919061022b565b610188565b6040516100a491906102bd565b60405180910390f35b5f5f9054906101000a900473ffffffffffffffffffffffffffffffffffffffff1673ffffffffffffffffffffffffffffffffffffffff163373ffffffffffffffffffffffffffffffffffffffff161461013b576040517f08c379a000000000000000000000000000000000000000000000000000000000815260040161013290610356565b60405180910390fd5b600181908060018154018082558091505060019003905f5260205f20015f909190919091505550565b5f5f9054906101000a900473ffffffffffffffffffffffffffffffffffffffff1681565b5f60018054905082106101d0576040517f08c379a00000000000000000000000000000000000000000000000000000000081526004016101c7906103be565b60405180910390fd5b600182815481106101e4576101e36103dc565b5b905f5260205f2001549050919050565b5f5ffd5b5f819050919050565b61020a816101f8565b8114610214575f5ffd5b50565b5f8135905061022581610201565b92915050565b5f602082840312156102405761023f6101f4565b5b5f61024d84828501610217565b91505092915050565b5f73ffffffffffffffffffffffffffffffffffffffff82169050919050565b5f61027f82610256565b9050919050565b61028f81610275565b82525050565b5f6020820190506102a85f830184610286565b92915050565b6102b7816101f8565b82525050565b5f6020820190506102d05f8301846102ae565b92915050565b5f82825260208201905092915050565b7f4f6e6c79206f776e65722063616e2063616c6c20746869732066756e6374696f5f8201527f6e00000000000000000000000000000000000000000000000000000000000000602082015250565b5f6103406021836102d6565b915061034b826102e6565b604082019050919050565b5f6020820190508181035f83015261036d81610334565b9050919050565b7f496e76616c696420696e646578000000000000000000000000000000000000005f82015250565b5f6103a8600d836102d6565b91506103b382610374565b602082019050919050565b5f6020820190508181035f8301526103d58161039c565b9050919050565b7f4e487b71000000000000000000000000000000000000000000000000000000005f52603260045260245ffdfea264697066735822122083b7bae777c5a06f349a272dcd4cbb08ec0c35f3d622b898d70b99fd1afccbb064736f6c634300081c0033","linkReferences":{}},"methodIdentifiers":{"add(uint256)":"1003e2d2","get(uint256)":"9507d39a","owner()":"8da5cb5b"},"id":0}