{"abi":[{"type":"function","name":"add","inputs":[{"name":"_value","type":"uint256","internalType":"uint256"}],"outputs":[],"stateMutability":"nonpayable"},{"type":"function","name":"get","inputs":[{"name":"index","type":"uint256","internalType":"uint256"}],"outputs":[{"name":"","type":"uint256","internalType":"uint256"}],"stateMutability":"view"},{"type":"function","name":"getAll","inputs":[],"outputs":[{"name":"","type":"uint256[]","internalType":"uint256[]"}],"stateMutability":"view"},{"type":"function","name":"remove","inputs":[{"name":"index","type":"uint256","internalType":"uint256"}],"outputs":[],"stateMutability":"nonpayable"}],"bytecode":{"object":"0x6080604052348015600e575f5ffd5b5061053c8061001c5f395ff3fe608060405234801561000f575f5ffd5b506004361061004a575f3560e01c80631003e2d21461004e5780634cc822151461006a57806353ed5143146100865780639507d39a146100a4575b5f5ffd5b610068600480360381019061006391906102aa565b6100d4565b005b610084600480360381019061007f91906102aa565b6100fc565b005b61008e6101b4565b60405161009b919061038c565b60405180910390f35b6100be60048036038101906100b991906102aa565b610209565b6040516100cb91906103bb565b60405180910390f35b5f81908060018154018082558091505060019003905f5260205f20015f909190919091505550565b5f805490508110610142576040517f08c379a00000000000000000000000000000000000000000000000000000000081526004016101399061042e565b60405180910390fd5b5f60015f805490506101549190610479565b81548110610165576101646104ac565b5b905f5260205f2001545f8281548110610181576101806104ac565b5b905f5260205f2001819055505f80548061019e5761019d6104d9565b5b600190038181905f5260205f20015f9055905550565b60605f8054806020026020016040519081016040528092919081815260200182805480156101ff57602002820191905f5260205f20905b8154815260200190600101908083116101eb575b5050505050905090565b5f5f805490508210610250576040517f08c379a00000000000000000000000000000000000000000000000000000000081526004016102479061042e565b60405180910390fd5b5f8281548110610263576102626104ac565b5b905f5260205f2001549050919050565b5f5ffd5b5f819050919050565b61028981610277565b8114610293575f5ffd5b50565b5f813590506102a481610280565b92915050565b5f602082840312156102bf576102be610273565b5b5f6102cc84828501610296565b91505092915050565b5f81519050919050565b5f82825260208201905092915050565b5f819050602082019050919050565b61030781610277565b82525050565b5f61031883836102fe565b60208301905092915050565b5f602082019050919050565b5f61033a826102d5565b61034481856102df565b935061034f836102ef565b805f5b8381101561037f578151610366888261030d565b975061037183610324565b925050600181019050610352565b5085935050505092915050565b5f6020820190508181035f8301526103a48184610330565b905092915050565b6103b581610277565b82525050565b5f6020820190506103ce5f8301846103ac565b92915050565b5f82825260208201905092915050565b7f496e646578206f7574206f6620626f756e6473000000000000000000000000005f82015250565b5f6104186013836103d4565b9150610423826103e4565b602082019050919050565b5f6020820190508181035f8301526104458161040c565b9050919050565b7f4e487b71000000000000000000000000000000000000000000000000000000005f52601160045260245ffd5b5f61048382610277565b915061048e83610277565b92508282039050818111156104a6576104a561044c565b5b92915050565b7f4e487b71000000000000000000000000000000000000000000000000000000005f52603260045260245ffd5b7f4e487b71000000000000000000000000000000000000000000000000000000005f52603160045260245ffdfea2646970667358221220190249d8c8be1a94b3dcc74d6381af1ebddd7eae2a261bc283e13354766bc1b364736f6c634300081c0033","linkReferences":{}},"methodIdentifiers":{"add(uint256)":"1003e2d2","get(uint256)":"9507d39a","getAll()":"53ed5143","remove(uint256)":"4cc82215"},"id":0}