{"abi":[{"type":"function","name":"balances","inputs":[{"name":"","type":"address","internalType":"address"}],"outputs":[{"name":"","type":"uint256","internalType":"uint256"}],"stateMutability":"view"},{"type":"function","name":"deposit","inputs":[],"outputs":[],"stateMutability":"payable"},{"type":"function","name":"swap","inputs":[{"name":"amount","type":"uint256","internalType":"uint256"}],"outputs":[],"stateMutability":"payable"},{"type":"function","name":"withdraw","inputs":[{"name":"amount","type":"uint256","internalType":"uint256"}],"outputs":[],"stateMutability":"nonpayable"}],"bytecode":{"object":"0x6080604052348015600e575f5ffd5b5061059b8061001c5f395ff3fe60806040526004361061003e575f3560e01c806327e235e3146100425780632e1a7d4d1461007e57806394b918de146100a6578063d0e30db0146100c2575b5f5ffd5b34801561004d575f5ffd5b5061006860048036038101906100639190610341565b6100cc565b6040516100759190610384565b60405180910390f35b348015610089575f5ffd5b506100a4600480360381019061009f91906103c7565b6100e0565b005b6100c060048036038101906100bb91906103c7565b6101f8565b005b6100ca61028f565b005b5f602052805f5260405f205f915090505481565b805f5f3373ffffffffffffffffffffffffffffffffffffffff1673ffffffffffffffffffffffffffffffffffffffff1681526020019081526020015f2054101561015f576040517f08c379a00000000000000000000000000000000000000000000000000000000081526004016101569061044c565b60405180910390fd5b805f5f3373ffffffffffffffffffffffffffffffffffffffff1673ffffffffffffffffffffffffffffffffffffffff1681526020019081526020015f205f8282546101aa9190610497565b925050819055503373ffffffffffffffffffffffffffffffffffffffff166108fc8290811502906040515f60405180830381858888f193505050501580156101f4573d5f5f3e3d5ffd5b5050565b80341461023a576040517f08c379a000000000000000000000000000000000000000000000000000000000815260040161023190610514565b60405180910390fd5b805f5f3373ffffffffffffffffffffffffffffffffffffffff1673ffffffffffffffffffffffffffffffffffffffff1681526020019081526020015f205f8282546102859190610532565b9250508190555050565b345f5f3373ffffffffffffffffffffffffffffffffffffffff1673ffffffffffffffffffffffffffffffffffffffff1681526020019081526020015f205f8282546102da9190610532565b92505081905550565b5f5ffd5b5f73ffffffffffffffffffffffffffffffffffffffff82169050919050565b5f610310826102e7565b9050919050565b61032081610306565b811461032a575f5ffd5b50565b5f8135905061033b81610317565b92915050565b5f60208284031215610356576103556102e3565b5b5f6103638482850161032d565b91505092915050565b5f819050919050565b61037e8161036c565b82525050565b5f6020820190506103975f830184610375565b92915050565b6103a68161036c565b81146103b0575f5ffd5b50565b5f813590506103c18161039d565b92915050565b5f602082840312156103dc576103db6102e3565b5b5f6103e9848285016103b3565b91505092915050565b5f82825260208201905092915050565b7f4e6f7420656e6f7567682062616c616e636500000000000000000000000000005f82015250565b5f6104366012836103f2565b915061044182610402565b602082019050919050565b5f6020820190508181035f8301526104638161042a565b9050919050565b7f4e487b71000000000000000000000000000000000000000000000000000000005f52601160045260245ffd5b5f6104a18261036c565b91506104ac8361036c565b92508282039050818111156104c4576104c361046a565b5b92915050565b7f496e636f72726563742045544820616d6f756e740000000000000000000000005f82015250565b5f6104fe6014836103f2565b9150610509826104ca565b602082019050919050565b5f6020820190508181035f83015261052b816104f2565b9050919050565b5f61053c8261036c565b91506105478361036c565b925082820190508082111561055f5761055e61046a565b5b9291505056fea2646970667358221220702116963b61f76c12c58ffba0260cac220006c4e755172171044d6568e0548064736f6c634300081c0033","linkReferences":{}},"methodIdentifiers":{"balances(address)":"27e235e3","deposit()":"d0e30db0","swap(uint256)":"94b918de","withdraw(uint256)":"2e1a7d4d"},"id":18}