{"abi":[{"type":"function","name":"get","inputs":[{"name":"user","type":"address","internalType":"address"}],"outputs":[{"name":"","type":"uint256","internalType":"uint256"}],"stateMutability":"view"},{"type":"function","name":"set","inputs":[{"name":"_data","type":"uint256","internalType":"uint256"}],"outputs":[],"stateMutability":"nonpayable"}],"bytecode":{"object":"0x6080604052348015600e575f5ffd5b506103388061001c5f395ff3fe608060405234801561000f575f5ffd5b5060043610610034575f3560e01c806360fe47b114610038578063c2bc2efc14610054575b5f5ffd5b610052600480360381019061004d91906101b2565b610084565b005b61006e60048036038101906100699190610237565b6100c8565b60405161007b9190610271565b60405180910390f35b805f5f3373ffffffffffffffffffffffffffffffffffffffff1673ffffffffffffffffffffffffffffffffffffffff1681526020019081526020015f208190555050565b5f8173ffffffffffffffffffffffffffffffffffffffff163373ffffffffffffffffffffffffffffffffffffffff1614610137576040517f08c379a000000000000000000000000000000000000000000000000000000000815260040161012e906102e4565b60405180910390fd5b5f5f8373ffffffffffffffffffffffffffffffffffffffff1673ffffffffffffffffffffffffffffffffffffffff1681526020019081526020015f20549050919050565b5f5ffd5b5f819050919050565b6101918161017f565b811461019b575f5ffd5b50565b5f813590506101ac81610188565b92915050565b5f602082840312156101c7576101c661017b565b5b5f6101d48482850161019e565b91505092915050565b5f73ffffffffffffffffffffffffffffffffffffffff82169050919050565b5f610206826101dd565b9050919050565b610216816101fc565b8114610220575f5ffd5b50565b5f813590506102318161020d565b92915050565b5f6020828403121561024c5761024b61017b565b5b5f61025984828501610223565b91505092915050565b61026b8161017f565b82525050565b5f6020820190506102845f830184610262565b92915050565b5f82825260208201905092915050565b7f556e617574686f72697a656420616363657373000000000000000000000000005f82015250565b5f6102ce60138361028a565b91506102d98261029a565b602082019050919050565b5f6020820190508181035f8301526102fb816102c2565b905091905056fea26469706673582212200dd9cc59235c1d45f06241a1787fe6a72b43cb93ee3c3c168a5130b459a48d8564736f6c634300081c0033","linkReferences":{}},"methodIdentifiers":{"get(address)":"c2bc2efc","set(uint256)":"60fe47b1"},"id":2}