{"abi":[{"type":"function","name":"get","inputs":[],"outputs":[{"name":"","type":"uint256","internalType":"uint256"}],"stateMutability":"view"},{"type":"function","name":"getFor","inputs":[{"name":"_user","type":"address","internalType":"address"}],"outputs":[{"name":"","type":"uint256","internalType":"uint256"}],"stateMutability":"view"},{"type":"function","name":"set","inputs":[{"name":"_data","type":"uint256","internalType":"uint256"}],"outputs":[],"stateMutability":"nonpayable"},{"type":"event","name":"DataUpdated","inputs":[{"name":"user","type":"address","indexed":true,"internalType":"address"},{"name":"newValue","type":"uint256","indexed":false,"internalType":"uint256"}],"anonymous":false}],"bytecode":{"object":"0x6080604052348015600e575f5ffd5b5061030c8061001c5f395ff3fe608060405234801561000f575f5ffd5b506004361061003f575f3560e01c806314d943b01461004357806360fe47b1146100735780636d4ce63c1461008f575b5f5ffd5b61005d60048036038101906100589190610225565b6100ad565b60405161006a9190610268565b60405180910390f35b61008d600480360381019061008891906102ab565b6100f2565b005b610097610184565b6040516100a49190610268565b60405180910390f35b5f5f5f8373ffffffffffffffffffffffffffffffffffffffff1673ffffffffffffffffffffffffffffffffffffffff1681526020019081526020015f20549050919050565b805f5f3373ffffffffffffffffffffffffffffffffffffffff1673ffffffffffffffffffffffffffffffffffffffff1681526020019081526020015f20819055503373ffffffffffffffffffffffffffffffffffffffff167f8aa8bd4e43dc6bb61a5221865a01a65c13e1171dfe8c9ba47c09cf85c07435a1826040516101799190610268565b60405180910390a250565b5f5f5f3373ffffffffffffffffffffffffffffffffffffffff1673ffffffffffffffffffffffffffffffffffffffff1681526020019081526020015f2054905090565b5f5ffd5b5f73ffffffffffffffffffffffffffffffffffffffff82169050919050565b5f6101f4826101cb565b9050919050565b610204816101ea565b811461020e575f5ffd5b50565b5f8135905061021f816101fb565b92915050565b5f6020828403121561023a576102396101c7565b5b5f61024784828501610211565b91505092915050565b5f819050919050565b61026281610250565b82525050565b5f60208201905061027b5f830184610259565b92915050565b61028a81610250565b8114610294575f5ffd5b50565b5f813590506102a581610281565b92915050565b5f602082840312156102c0576102bf6101c7565b5b5f6102cd84828501610297565b9150509291505056fea26469706673582212200744ee9ce7776b16c1ec4c0c1aa7a9803df2e2efae605e776d0ccb19efa6a94a64736f6c634300081c0033","linkReferences":{}},"methodIdentifiers":{"get()":"6d4ce63c","getFor(address)":"14d943b0","set(uint256)":"60fe47b1"},"id":2}