{"abi":[{"type":"constructor","inputs":[],"stateMutability":"nonpayable"},{"type":"function","name":"get","inputs":[],"outputs":[{"name":"","type":"uint256","internalType":"uint256"}],"stateMutability":"view"},{"type":"function","name":"owner","inputs":[],"outputs":[{"name":"","type":"address","internalType":"address"}],"stateMutability":"view"},{"type":"function","name":"set","inputs":[{"name":"_data","type":"uint256","internalType":"uint256"}],"outputs":[],"stateMutability":"nonpayable"}],"bytecode":{"object":"0x6080604052348015600e575f5ffd5b50335f5f6101000a81548173ffffffffffffffffffffffffffffffffffffffff021916908373ffffffffffffffffffffffffffffffffffffffff1602179055506103168061005b5f395ff3fe608060405234801561000f575f5ffd5b506004361061003f575f3560e01c806360fe47b1146100435780636d4ce63c1461005f5780638da5cb5b1461007d575b5f5ffd5b61005d60048036038101906100589190610197565b61009b565b005b610067610133565b60405161007491906101d1565b60405180910390f35b61008561013c565b6040516100929190610229565b60405180910390f35b5f5f9054906101000a900473ffffffffffffffffffffffffffffffffffffffff1673ffffffffffffffffffffffffffffffffffffffff163373ffffffffffffffffffffffffffffffffffffffff1614610129576040517f08c379a0000000000000000000000000000000000000000000000000000000008152600401610120906102c2565b60405180910390fd5b8060028190555050565b5f600254905090565b5f5f9054906101000a900473ffffffffffffffffffffffffffffffffffffffff1681565b5f5ffd5b5f819050919050565b61017681610164565b8114610180575f5ffd5b50565b5f813590506101918161016d565b92915050565b5f602082840312156101ac576101ab610160565b5b5f6101b984828501610183565b91505092915050565b6101cb81610164565b82525050565b5f6020820190506101e45f8301846101c2565b92915050565b5f73ffffffffffffffffffffffffffffffffffffffff82169050919050565b5f610213826101ea565b9050919050565b61022381610209565b82525050565b5f60208201905061023c5f83018461021a565b92915050565b5f82825260208201905092915050565b7f4f6e6c79206f776e65722063616e2063616c6c20746869732066756e6374696f5f8201527f6e00000000000000000000000000000000000000000000000000000000000000602082015250565b5f6102ac602183610242565b91506102b782610252565b604082019050919050565b5f6020820190508181035f8301526102d9816102a0565b905091905056fea2646970667358221220c0c975d5309e9de44cd5cde8e131ebca699a9cd70f0af23d21b407a3207ea52364736f6c634300081c0033","linkReferences":{}},"methodIdentifiers":{"get()":"6d4ce63c","owner()":"8da5cb5b","set(uint256)":"60fe47b1"},"id":1}